{
  "contractName": "p2p_lending",
  "abi": [
    {
      "constant": true,
      "inputs": [
        {
          "internalType": "uint256",
          "name": "",
          "type": "uint256"
        }
      ],
      "name": "Listed_Requirements",
      "outputs": [
        {
          "internalType": "address payable",
          "name": "borrower",
          "type": "address"
        },
        {
          "internalType": "string",
          "name": "reason",
          "type": "string"
        },
        {
          "internalType": "uint256",
          "name": "amount",
          "type": "uint256"
        },
        {
          "internalType": "uint256",
          "name": "key",
          "type": "uint256"
        },
        {
          "internalType": "string",
          "name": "reg_id",
          "type": "string"
        },
        {
          "internalType": "bool",
          "name": "flag",
          "type": "bool"
        },
        {
          "internalType": "uint256",
          "name": "Collateral",
          "type": "uint256"
        },
        {
          "internalType": "bool",
          "name": "Transaction_processed",
          "type": "bool"
        }
      ],
      "payable": false,
      "stateMutability": "view",
      "type": "function"
    },
    {
      "constant": true,
      "inputs": [
        {
          "internalType": "uint256",
          "name": "",
          "type": "uint256"
        }
      ],
      "name": "Payouts",
      "outputs": [
        {
          "internalType": "address",
          "name": "sender",
          "type": "address"
        },
        {
          "internalType": "address",
          "name": "receiver",
          "type": "address"
        },
        {
          "internalType": "uint256",
          "name": "amt",
          "type": "uint256"
        },
        {
          "internalType": "uint256",
          "name": "transaction_id",
          "type": "uint256"
        },
        {
          "internalType": "bool",
          "name": "full_repayment",
          "type": "bool"
        },
        {
          "internalType": "uint256",
          "name": "next_amt_due",
          "type": "uint256"
        },
        {
          "internalType": "uint256",
          "name": "payment_id",
          "type": "uint256"
        }
      ],
      "payable": false,
      "stateMutability": "view",
      "type": "function"
    },
    {
      "constant": true,
      "inputs": [
        {
          "internalType": "uint256",
          "name": "",
          "type": "uint256"
        }
      ],
      "name": "Processed_Transactions",
      "outputs": [
        {
          "internalType": "address payable",
          "name": "borrower",
          "type": "address"
        },
        {
          "internalType": "address payable",
          "name": "lender",
          "type": "address"
        },
        {
          "internalType": "bool",
          "name": "Loan_Paid",
          "type": "bool"
        },
        {
          "internalType": "string",
          "name": "borrower_reg_id",
          "type": "string"
        },
        {
          "internalType": "string",
          "name": "lender_reg_id",
          "type": "string"
        },
        {
          "internalType": "uint256",
          "name": "transaction_number",
          "type": "uint256"
        },
        {
          "internalType": "uint256",
          "name": "listing_id",
          "type": "uint256"
        },
        {
          "internalType": "uint256",
          "name": "collateral_deposit",
          "type": "uint256"
        },
        {
          "internalType": "uint256",
          "name": "pay_back_amt",
          "type": "uint256"
        },
        {
          "internalType": "uint256",
          "name": "amt_due",
          "type": "uint256"
        },
        {
          "internalType": "bool",
          "name": "collateral_liquidated",
          "type": "bool"
        }
      ],
      "payable": false,
      "stateMutability": "view",
      "type": "function"
    },
    {
      "constant": true,
      "inputs": [
        {
          "internalType": "uint256",
          "name": "",
          "type": "uint256"
        }
      ],
      "name": "collateral_payouts",
      "outputs": [
        {
          "internalType": "address",
          "name": "sender",
          "type": "address"
        },
        {
          "internalType": "uint256",
          "name": "amt",
          "type": "uint256"
        },
        {
          "internalType": "uint256",
          "name": "c_p_id",
          "type": "uint256"
        }
      ],
      "payable": false,
      "stateMutability": "view",
      "type": "function"
    },
    {
      "constant": true,
      "inputs": [
        {
          "internalType": "uint256",
          "name": "",
          "type": "uint256"
        }
      ],
      "name": "wallet_payouts",
      "outputs": [
        {
          "internalType": "address payable",
          "name": "receiver",
          "type": "address"
        },
        {
          "internalType": "uint256",
          "name": "amt",
          "type": "uint256"
        },
        {
          "internalType": "bool",
          "name": "to_lender",
          "type": "bool"
        },
        {
          "internalType": "bool",
          "name": "to_borrower",
          "type": "bool"
        },
        {
          "internalType": "uint256",
          "name": "t_id",
          "type": "uint256"
        },
        {
          "internalType": "uint256",
          "name": "payouts_id",
          "type": "uint256"
        }
      ],
      "payable": false,
      "stateMutability": "view",
      "type": "function"
    },
    {
      "constant": false,
      "inputs": [
        {
          "internalType": "string",
          "name": "_reason",
          "type": "string"
        },
        {
          "internalType": "uint256",
          "name": "_amt",
          "type": "uint256"
        },
        {
          "internalType": "string",
          "name": "_reg_id",
          "type": "string"
        },
        {
          "internalType": "uint256",
          "name": "_coll",
          "type": "uint256"
        }
      ],
      "name": "create_listing",
      "outputs": [
        {
          "internalType": "uint256",
          "name": "",
          "type": "uint256"
        },
        {
          "internalType": "uint256",
          "name": "",
          "type": "uint256"
        }
      ],
      "payable": false,
      "stateMutability": "nonpayable",
      "type": "function"
    },
    {
      "constant": true,
      "inputs": [
        {
          "internalType": "uint256",
          "name": "count",
          "type": "uint256"
        }
      ],
      "name": "fetch_listing",
      "outputs": [
        {
          "internalType": "address",
          "name": "",
          "type": "address"
        },
        {
          "internalType": "string",
          "name": "",
          "type": "string"
        },
        {
          "internalType": "uint256",
          "name": "",
          "type": "uint256"
        },
        {
          "internalType": "uint256",
          "name": "",
          "type": "uint256"
        },
        {
          "internalType": "string",
          "name": "",
          "type": "string"
        },
        {
          "internalType": "bool",
          "name": "",
          "type": "bool"
        },
        {
          "internalType": "uint256",
          "name": "",
          "type": "uint256"
        }
      ],
      "payable": false,
      "stateMutability": "view",
      "type": "function"
    },
    {
      "constant": false,
      "inputs": [
        {
          "internalType": "uint256",
          "name": "l_id",
          "type": "uint256"
        },
        {
          "internalType": "address payable",
          "name": "a",
          "type": "address"
        },
        {
          "internalType": "uint256",
          "name": "_amt",
          "type": "uint256"
        }
      ],
      "name": "transfer_coll",
      "outputs": [
        {
          "internalType": "uint256",
          "name": "",
          "type": "uint256"
        }
      ],
      "payable": true,
      "stateMutability": "payable",
      "type": "function"
    },
    {
      "constant": false,
      "inputs": [
        {
          "internalType": "uint256",
          "name": "l_id",
          "type": "uint256"
        },
        {
          "internalType": "string",
          "name": "borrower_reg_id",
          "type": "string"
        },
        {
          "internalType": "string",
          "name": "lender_reg_id",
          "type": "string"
        },
        {
          "internalType": "uint256",
          "name": "c_d",
          "type": "uint256"
        },
        {
          "internalType": "uint256",
          "name": "pay_back_amt",
          "type": "uint256"
        }
      ],
      "name": "process_transaction",
      "outputs": [
        {
          "internalType": "uint256",
          "name": "",
          "type": "uint256"
        },
        {
          "internalType": "uint256",
          "name": "",
          "type": "uint256"
        }
      ],
      "payable": true,
      "stateMutability": "payable",
      "type": "function"
    },
    {
      "constant": false,
      "inputs": [
        {
          "internalType": "uint256",
          "name": "_t_c",
          "type": "uint256"
        }
      ],
      "name": "view_transactions",
      "outputs": [
        {
          "internalType": "string",
          "name": "",
          "type": "string"
        }
      ],
      "payable": false,
      "stateMutability": "nonpayable",
      "type": "function"
    },
    {
      "constant": false,
      "inputs": [
        {
          "internalType": "uint256",
          "name": "transaction_no",
          "type": "uint256"
        },
        {
          "internalType": "uint256",
          "name": "_amt",
          "type": "uint256"
        }
      ],
      "name": "make_payouts",
      "outputs": [
        {
          "internalType": "uint256",
          "name": "",
          "type": "uint256"
        },
        {
          "internalType": "uint256",
          "name": "",
          "type": "uint256"
        }
      ],
      "payable": true,
      "stateMutability": "payable",
      "type": "function"
    },
    {
      "constant": false,
      "inputs": [
        {
          "internalType": "uint256",
          "name": "t_id",
          "type": "uint256"
        },
        {
          "internalType": "uint256",
          "name": "amt",
          "type": "uint256"
        }
      ],
      "name": "borrower_payout",
      "outputs": [
        {
          "internalType": "uint256",
          "name": "",
          "type": "uint256"
        },
        {
          "internalType": "uint256",
          "name": "",
          "type": "uint256"
        }
      ],
      "payable": true,
      "stateMutability": "payable",
      "type": "function"
    },
    {
      "constant": false,
      "inputs": [
        {
          "internalType": "uint256",
          "name": "t_id",
          "type": "uint256"
        },
        {
          "internalType": "uint256",
          "name": "amt",
          "type": "uint256"
        }
      ],
      "name": "liquidate_collateral",
      "outputs": [
        {
          "internalType": "uint256",
          "name": "",
          "type": "uint256"
        },
        {
          "internalType": "uint256",
          "name": "",
          "type": "uint256"
        }
      ],
      "payable": true,
      "stateMutability": "payable",
      "type": "function"
    }
  ],
  "bytecode": "0x608060405260008055600060015560006002556000600355600060045534801561002857600080fd5b506124ed806100386000396000f3fe6080604052600436106100c25760003560e01c80633d818ddc1161007f5780639900bce9116100595780639900bce914610836578063bbcbc84f1461090b578063c8fff06f14610994578063e74f340514610b22576100c2565b80633d818ddc1461049157806340dd4cde14610545578063632d51d6146106c3576100c2565b80630c16b8f0146100c75780630deb50431461011a57806312f60640146101c057806317e9f7481461022c578063184d03ce146103eb57806325cab0da1461043e575b600080fd5b6100fd600480360360408110156100dd57600080fd5b810190808035906020019092919080359060200190929190505050610cad565b604051808381526020018281526020019250505060405180910390f35b34801561012657600080fd5b506101536004803603602081101561013d57600080fd5b8101908080359060200190929190505050610e90565b604051808773ffffffffffffffffffffffffffffffffffffffff1673ffffffffffffffffffffffffffffffffffffffff1681526020018681526020018515151515815260200184151515158152602001838152602001828152602001965050505050505060405180910390f35b610216600480360360608110156101d657600080fd5b8101908080359060200190929190803573ffffffffffffffffffffffffffffffffffffffff16906020019092919080359060200190929190505050610f06565b6040518082815260200191505060405180910390f35b34801561023857600080fd5b506102656004803603602081101561024f57600080fd5b8101908080359060200190929190505050611040565b604051808c73ffffffffffffffffffffffffffffffffffffffff1673ffffffffffffffffffffffffffffffffffffffff1681526020018b73ffffffffffffffffffffffffffffffffffffffff1673ffffffffffffffffffffffffffffffffffffffff1681526020018a15151515815260200180602001806020018981526020018881526020018781526020018681526020018581526020018415151515815260200183810383528b818151815260200191508051906020019080838360005b8381101561033f578082015181840152602081019050610324565b50505050905090810190601f16801561036c5780820380516001836020036101000a031916815260200191505b5083810382528a818151815260200191508051906020019080838360005b838110156103a557808201518184015260208101905061038a565b50505050905090810190601f1680156103d25780820380516001836020036101000a031916815260200191505b509d505050505050505050505050505060405180910390f35b6104216004803603604081101561040157600080fd5b810190808035906020019092919080359060200190929190505050611224565b604051808381526020018281526020019250505060405180910390f35b6104746004803603604081101561045457600080fd5b8101908080359060200190929190803590602001909291905050506113d8565b604051808381526020018281526020019250505060405180910390f35b34801561049d57600080fd5b506104ca600480360360208110156104b457600080fd5b81019080803590602001909291905050506116fe565b6040518080602001828103825283818151815260200191508051906020019080838360005b8381101561050a5780820151818401526020810190506104ef565b50505050905090810190601f1680156105375780820380516001836020036101000a031916815260200191505b509250505060405180910390f35b34801561055157600080fd5b5061057e6004803603602081101561056857600080fd5b81019080803590602001909291905050506117b6565b604051808973ffffffffffffffffffffffffffffffffffffffff1673ffffffffffffffffffffffffffffffffffffffff1681526020018060200188815260200187815260200180602001861515151581526020018581526020018415151515815260200183810383528a818151815260200191508051906020019080838360005b8381101561061a5780820151818401526020810190506105ff565b50505050905090810190601f1680156106475780820380516001836020036101000a031916815260200191505b50838103825287818151815260200191508051906020019080838360005b83811015610680578082015181840152602081019050610665565b50505050905090810190601f1680156106ad5780820380516001836020036101000a031916815260200191505b509a505050505050505050505060405180910390f35b3480156106cf57600080fd5b506106fc600480360360208110156106e657600080fd5b8101908080359060200190929190505050611968565b604051808873ffffffffffffffffffffffffffffffffffffffff1673ffffffffffffffffffffffffffffffffffffffff168152602001806020018781526020018681526020018060200185151515158152602001848152602001838103835289818151815260200191508051906020019080838360005b8381101561078e578082015181840152602081019050610773565b50505050905090810190601f1680156107bb5780820380516001836020036101000a031916815260200191505b50838103825286818151815260200191508051906020019080838360005b838110156107f45780820151818401526020810190506107d9565b50505050905090810190601f1680156108215780820380516001836020036101000a031916815260200191505b50995050505050505050505060405180910390f35b34801561084257600080fd5b5061086f6004803603602081101561085957600080fd5b8101908080359060200190929190505050611b94565b604051808873ffffffffffffffffffffffffffffffffffffffff1673ffffffffffffffffffffffffffffffffffffffff1681526020018773ffffffffffffffffffffffffffffffffffffffff1673ffffffffffffffffffffffffffffffffffffffff1681526020018681526020018581526020018415151515815260200183815260200182815260200197505050505050505060405180910390f35b34801561091757600080fd5b506109446004803603602081101561092e57600080fd5b8101908080359060200190929190505050611c23565b604051808473ffffffffffffffffffffffffffffffffffffffff1673ffffffffffffffffffffffffffffffffffffffff168152602001838152602001828152602001935050505060405180910390f35b3480156109a057600080fd5b50610b05600480360360808110156109b757600080fd5b81019080803590602001906401000000008111156109d457600080fd5b8201836020820111156109e657600080fd5b80359060200191846001830284011164010000000083111715610a0857600080fd5b91908080601f016020809104026020016040519081016040528093929190818152602001838380828437600081840152601f19601f8201169050808301925050505050505091929192908035906020019092919080359060200190640100000000811115610a7557600080fd5b820183602082011115610a8757600080fd5b80359060200191846001830284011164010000000083111715610aa957600080fd5b91908080601f016020809104026020016040519081016040528093929190818152602001838380828437600081840152601f19601f82011690508083019250505050505050919291929080359060200190929190505050611c6d565b604051808381526020018281526020019250505060405180910390f35b610c90600480360360a0811015610b3857600080fd5b810190808035906020019092919080359060200190640100000000811115610b5f57600080fd5b820183602082011115610b7157600080fd5b80359060200191846001830284011164010000000083111715610b9357600080fd5b91908080601f016020809104026020016040519081016040528093929190818152602001838380828437600081840152601f19601f82011690508083019250505050505050919291929080359060200190640100000000811115610bf657600080fd5b820183602082011115610c0857600080fd5b80359060200191846001830284011164010000000083111715610c2a57600080fd5b91908080601f016020809104026020016040519081016040528093929190818152602001838380828437600081840152601f19601f8201169050808301925050505050505091929192908035906020019092919080359060200190929190505050612108565b604051808381526020018281526020019250505060405180910390f35b60008060006007600086815260200190815260200160002060010160009054906101000a900473ffffffffffffffffffffffffffffffffffffffff16905060006007600087815260200190815260200160002060010160146101000a81548160ff0219169083151502179055508073ffffffffffffffffffffffffffffffffffffffff166108fc349081150290604051600060405180830381858888f19350505050158015610d60573d6000803e3d6000fd5b5060016004600082825401925050819055506040518060c001604052808273ffffffffffffffffffffffffffffffffffffffff168152602001858152602001600015158152602001600115158152602001868152602001600454815250600a6000600454815260200190815260200160002060008201518160000160006101000a81548173ffffffffffffffffffffffffffffffffffffffff021916908373ffffffffffffffffffffffffffffffffffffffff1602179055506020820151816001015560408201518160020160006101000a81548160ff02191690831515021790555060608201518160020160016101000a81548160ff0219169083151502179055506080820151816003015560a0820151816004015590505060c8600181915080905092509250509250929050565b600a6020528060005260406000206000915090508060000160009054906101000a900473ffffffffffffffffffffffffffffffffffffffff16908060010154908060020160009054906101000a900460ff16908060020160019054906101000a900460ff16908060030154908060040154905086565b60008273ffffffffffffffffffffffffffffffffffffffff166108fc349081150290604051600060405180830381858888f19350505050158015610f4e573d6000803e3d6000fd5b5060016006600086815260200190815260200160002060070160006101000a81548160ff021916908315150217905550600160036000828254019250508190555060405180606001604052803373ffffffffffffffffffffffffffffffffffffffff16815260200183815260200160035481525060096000600354815260200190815260200160002060008201518160000160006101000a81548173ffffffffffffffffffffffffffffffffffffffff021916908373ffffffffffffffffffffffffffffffffffffffff1602179055506020820151816001015560408201518160020155905050600190509392505050565b60076020528060005260406000206000915090508060000160009054906101000a900473ffffffffffffffffffffffffffffffffffffffff16908060010160009054906101000a900473ffffffffffffffffffffffffffffffffffffffff16908060010160149054906101000a900460ff1690806002018054600181600116156101000203166002900480601f01602080910402602001604051908101604052809291908181526020018280546001816001161561010002031660029004801561114b5780601f106111205761010080835404028352916020019161114b565b820191906000526020600020905b81548152906001019060200180831161112e57829003601f168201915b505050505090806003018054600181600116156101000203166002900480601f0160208091040260200160405190810160405280929190818152602001828054600181600116156101000203166002900480156111e95780601f106111be576101008083540402835291602001916111e9565b820191906000526020600020905b8154815290600101906020018083116111cc57829003601f168201915b5050505050908060040154908060050154908060060154908060070154908060080154908060090160009054906101000a900460ff1690508b565b60008060006007600086815260200190815260200160002060000160009054906101000a900473ffffffffffffffffffffffffffffffffffffffff1690508073ffffffffffffffffffffffffffffffffffffffff166108fc349081150290604051600060405180830381858888f193505050501580156112a8573d6000803e3d6000fd5b5060016004600082825401925050819055506040518060c001604052808273ffffffffffffffffffffffffffffffffffffffff168152602001858152602001600015158152602001600115158152602001868152602001600454815250600a6000600454815260200190815260200160002060008201518160000160006101000a81548173ffffffffffffffffffffffffffffffffffffffff021916908373ffffffffffffffffffffffffffffffffffffffff1602179055506020820151816001015560408201518160020160006101000a81548160ff02191690831515021790555060608201518160020160016101000a81548160ff0219169083151502179055506080820151816003015560a0820151816004015590505060c8600181915080905092509250509250929050565b6000806000809050600760008681526020019081526020016000206008015484141561140357600190505b60006007600087815260200190815260200160002060010160009054906101000a900473ffffffffffffffffffffffffffffffffffffffff1690508073ffffffffffffffffffffffffffffffffffffffff166108fc349081150290604051600060405180830381858888f19350505050158015611484573d6000803e3d6000fd5b50816007600088815260200190815260200160002060010160146101000a81548160ff021916908315150217905550600085600760008981526020019081526020016000206008015403905080600760008981526020019081526020016000206008018190555060006007600089815260200190815260200160002060090160006101000a81548160ff02191690831515021790555060016002600082825401925050819055506040518060e00160405280600760008a815260200190815260200160002060000160009054906101000a900473ffffffffffffffffffffffffffffffffffffffff1673ffffffffffffffffffffffffffffffffffffffff168152602001600760008a815260200190815260200160002060010160009054906101000a900473ffffffffffffffffffffffffffffffffffffffff1673ffffffffffffffffffffffffffffffffffffffff168152602001348152602001888152602001841515815260200182815260200160025481525060086000600254815260200190815260200160002060008201518160000160006101000a81548173ffffffffffffffffffffffffffffffffffffffff021916908373ffffffffffffffffffffffffffffffffffffffff16021790555060208201518160010160006101000a81548173ffffffffffffffffffffffffffffffffffffffff021916908373ffffffffffffffffffffffffffffffffffffffff160217905550604082015181600201556060820151816003015560808201518160040160006101000a81548160ff02191690831515021790555060a0820151816005015560c0820151816006015590505060c8600254819150945094505050509250929050565b6060600760008381526020019081526020016000206003018054600181600116156101000203166002900480601f0160208091040260200160405190810160405280929190818152602001828054600181600116156101000203166002900480156117aa5780601f1061177f576101008083540402835291602001916117aa565b820191906000526020600020905b81548152906001019060200180831161178d57829003601f168201915b50505050509050919050565b60066020528060005260406000206000915090508060000160009054906101000a900473ffffffffffffffffffffffffffffffffffffffff1690806001018054600181600116156101000203166002900480601f0160208091040260200160405190810160405280929190818152602001828054600181600116156101000203166002900480156118885780601f1061185d57610100808354040283529160200191611888565b820191906000526020600020905b81548152906001019060200180831161186b57829003601f168201915b505050505090806002015490806003015490806004018054600181600116156101000203166002900480601f0160208091040260200160405190810160405280929190818152602001828054600181600116156101000203166002900480156119325780601f1061190757610100808354040283529160200191611932565b820191906000526020600020905b81548152906001019060200180831161191557829003601f168201915b5050505050908060050160009054906101000a900460ff16908060060154908060070160009054906101000a900460ff16905088565b6000606060008060606000806006600089815260200190815260200160002060000160009054906101000a900473ffffffffffffffffffffffffffffffffffffffff16600660008a8152602001908152602001600020600101600660008b815260200190815260200160002060020154600660008c815260200190815260200160002060030154600660008d8152602001908152602001600020600401600660008e815260200190815260200160002060050160009054906101000a900460ff16600660008f815260200190815260200160002060060154869650858054600181600116156101000203166002900480601f016020809104026020016040519081016040528092919081815260200182805460018160011615610100020316600290048015611ad85780601f10611aad57610100808354040283529160200191611ad8565b820191906000526020600020905b815481529060010190602001808311611abb57829003601f168201915b50505050509550828054600181600116156101000203166002900480601f016020809104026020016040519081016040528092919081815260200182805460018160011615610100020316600290048015611b745780601f10611b4957610100808354040283529160200191611b74565b820191906000526020600020905b815481529060010190602001808311611b5757829003601f168201915b505050505092509650965096509650965096509650919395979092949650565b60086020528060005260406000206000915090508060000160009054906101000a900473ffffffffffffffffffffffffffffffffffffffff16908060010160009054906101000a900473ffffffffffffffffffffffffffffffffffffffff16908060020154908060030154908060040160009054906101000a900460ff16908060050154908060060154905087565b60096020528060005260406000206000915090508060000160009054906101000a900473ffffffffffffffffffffffffffffffffffffffff16908060010154908060020154905083565b6000806000809050600080600090505b6001548111611f6e57611c8e612389565b60076000600184018152602001908152602001600020604051806101600160405290816000820160009054906101000a900473ffffffffffffffffffffffffffffffffffffffff1673ffffffffffffffffffffffffffffffffffffffff1673ffffffffffffffffffffffffffffffffffffffff1681526020016001820160009054906101000a900473ffffffffffffffffffffffffffffffffffffffff1673ffffffffffffffffffffffffffffffffffffffff1673ffffffffffffffffffffffffffffffffffffffff1681526020016001820160149054906101000a900460ff16151515158152602001600282018054600181600116156101000203166002900480601f016020809104026020016040519081016040528092919081815260200182805460018160011615610100020316600290048015611e105780601f10611de557610100808354040283529160200191611e10565b820191906000526020600020905b815481529060010190602001808311611df357829003601f168201915b50505050508152602001600382018054600181600116156101000203166002900480601f016020809104026020016040519081016040528092919081815260200182805460018160011615610100020316600290048015611eb25780601f10611e8757610100808354040283529160200191611eb2565b820191906000526020600020905b815481529060010190602001808311611e9557829003601f168201915b5050505050815260200160048201548152602001600582015481526020016006820154815260200160078201548152602001600882015481526020016009820160009054906101000a900460ff16151515158152505090503373ffffffffffffffffffffffffffffffffffffffff16816000015173ffffffffffffffffffffffffffffffffffffffff16148015611f5157506000151581604001511515145b15611f60576001935050611f6e565b508080600101915050611c7d565b506000151582151514156120ed57600160008082825401925050819055506040518061010001604052803373ffffffffffffffffffffffffffffffffffffffff168152602001898152602001888152602001600054815260200187815260200160011515815260200186815260200160001515815250600660008054815260200190815260200160002060008201518160000160006101000a81548173ffffffffffffffffffffffffffffffffffffffff021916908373ffffffffffffffffffffffffffffffffffffffff160217905550602082015181600101908051906020019061205b929190612413565b506040820151816002015560608201518160030155608082015181600401908051906020019061208c929190612413565b5060a08201518160050160006101000a81548160ff02191690831515021790555060c0820151816006015560e08201518160070160006101000a81548160ff02191690831515021790555090505060c86000548191509350935050506120ff565b61012c60008191508090509350935050505b94509492505050565b60008060006006600089815260200190815260200160002060000160009054906101000a900473ffffffffffffffffffffffffffffffffffffffff169050600180600082825401925050819055506040518061016001604052808273ffffffffffffffffffffffffffffffffffffffff1681526020013373ffffffffffffffffffffffffffffffffffffffff16815260200160001515815260200188815260200187815260200160015481526020018981526020018681526020018581526020018581526020016000151581525060076000600154815260200190815260200160002060008201518160000160006101000a81548173ffffffffffffffffffffffffffffffffffffffff021916908373ffffffffffffffffffffffffffffffffffffffff16021790555060208201518160010160006101000a81548173ffffffffffffffffffffffffffffffffffffffff021916908373ffffffffffffffffffffffffffffffffffffffff16021790555060408201518160010160146101000a81548160ff02191690831515021790555060608201518160020190805190602001906122b5929190612413565b5060808201518160030190805190602001906122d2929190612413565b5060a0820151816004015560c0820151816005015560e08201518160060155610100820151816007015561012082015181600801556101408201518160090160006101000a81548160ff0219169083151502179055509050508073ffffffffffffffffffffffffffffffffffffffff166108fc349081150290604051600060405180830381858888f19350505050158015612371573d6000803e3d6000fd5b5060c860015481915092509250509550959350505050565b604051806101600160405280600073ffffffffffffffffffffffffffffffffffffffff168152602001600073ffffffffffffffffffffffffffffffffffffffff168152602001600015158152602001606081526020016060815260200160008152602001600081526020016000815260200160008152602001600081526020016000151581525090565b828054600181600116156101000203166002900490600052602060002090601f016020900481019282601f1061245457805160ff1916838001178555612482565b82800160010185558215612482579182015b82811115612481578251825591602001919060010190612466565b5b50905061248f9190612493565b5090565b6124b591905b808211156124b1576000816000905550600101612499565b5090565b9056fea265627a7a72315820a2240129fdceb13fb42803b68b7d973a90266f2ca9df159b2bfc0f8aff69b30064736f6c63430005100032",
  "source": "pragma solidity ^0.5.1;\r\n\r\ncontract p2p_lending {\r\n    uint256 listing_counter = 0;\r\n    uint256 transaction_counter = 0;\r\n    uint256 payments_counter = 0;\r\n    uint256 collateral_payout_counter = 0;\r\n    uint256 liquidated_payouts = 0;\r\n    address payable bank;\r\n\r\n    struct Listings {\r\n        address payable borrower;\r\n        string reason;\r\n        uint256 amount;\r\n        uint256 key;\r\n        string reg_id;\r\n        bool flag;\r\n        uint256 Collateral;\r\n        bool Transaction_processed;\r\n    }\r\n    struct Transaction {\r\n        address payable borrower;\r\n        address payable lender;\r\n        bool Loan_Paid;\r\n        string borrower_reg_id;\r\n        string lender_reg_id;\r\n        uint256 transaction_number;\r\n        uint256 listing_id;\r\n        uint256 collateral_deposit;\r\n        uint256 pay_back_amt;\r\n        uint256 amt_due;\r\n        bool collateral_liquidated;\r\n    }\r\n\r\n    struct Payments {\r\n        address sender;\r\n        address receiver;\r\n        uint256 amt;\r\n        uint256 transaction_id;\r\n        bool full_repayment;\r\n        uint256 next_amt_due;\r\n        uint256 payment_id;\r\n    }\r\n    struct collateral_payments {\r\n        address sender;\r\n        uint256 amt;\r\n        uint256 c_p_id;\r\n    }\r\n    struct Liquidated_Payouts {\r\n        address payable receiver;\r\n        uint256 amt;\r\n        bool to_lender;\r\n        bool to_borrower;\r\n        uint256 t_id;\r\n        uint256 payouts_id;\r\n    }\r\n    mapping(uint256 => Listings) public Listed_Requirements;\r\n    mapping(uint256 => Transaction) public Processed_Transactions;\r\n    mapping(uint256 => Payments) public Payouts;\r\n    mapping(uint256 => collateral_payments) public collateral_payouts;\r\n    mapping(uint256 => Liquidated_Payouts) public wallet_payouts;\r\n\r\n    function create_listing(\r\n        string memory _reason,\r\n        uint256 _amt,\r\n        string memory _reg_id,\r\n        uint256 _coll\r\n    ) public returns (uint256, uint256) {\r\n        bool flag = false;\r\n        uint256 c_amt;\r\n\r\n        for (uint256 i = 0; i <= transaction_counter; i++) {\r\n            Transaction memory t = Processed_Transactions[i + 1];\r\n            if (t.borrower == msg.sender && t.Loan_Paid == false) {\r\n                flag = true;\r\n                break;\r\n            }\r\n        }\r\n        if (flag == false) {\r\n            //create a new new Lisiting\r\n            listing_counter += 1;\r\n\r\n            Listed_Requirements[listing_counter] = Listings(\r\n                msg.sender,\r\n                _reason,\r\n                _amt,\r\n                listing_counter,\r\n                _reg_id,\r\n                true,\r\n                _coll,\r\n                false\r\n            );\r\n            return (200, listing_counter);\r\n        }\r\n        return (300, 0);\r\n    }\r\n\r\n    function fetch_listing(uint256 count)\r\n        public\r\n        view\r\n        returns (\r\n            address,\r\n            string memory,\r\n            uint256,\r\n            uint256,\r\n            string memory,\r\n            bool,\r\n            uint256\r\n        )\r\n    {\r\n        return (\r\n            Listed_Requirements[count].borrower,\r\n            Listed_Requirements[count].reason,\r\n            Listed_Requirements[count].amount,\r\n            Listed_Requirements[count].key,\r\n            Listed_Requirements[count].reg_id,\r\n            Listed_Requirements[count].flag,\r\n            Listed_Requirements[count].Collateral\r\n        );\r\n    }\r\n\r\n    function transfer_coll(\r\n        uint256 l_id,\r\n        address payable a,\r\n        uint256 _amt\r\n    ) public payable returns (uint256) {\r\n        a.transfer(msg.value);\r\n        Listed_Requirements[l_id].Transaction_processed = true;\r\n        collateral_payout_counter += 1;\r\n        collateral_payouts[collateral_payout_counter] = collateral_payments(\r\n            msg.sender,\r\n            _amt,\r\n            collateral_payout_counter\r\n        );\r\n\r\n        return 1;\r\n    }\r\n\r\n    function process_transaction(\r\n        uint256 l_id,\r\n        string memory borrower_reg_id,\r\n        string memory lender_reg_id,\r\n        uint256 c_d,\r\n        uint256 pay_back_amt\r\n    ) public payable returns (uint256, uint256) {\r\n        address payable borrower = Listed_Requirements[l_id].borrower;\r\n\r\n        // Increment Counter\r\n        transaction_counter += 1;\r\n\r\n        Processed_Transactions[transaction_counter] = Transaction(\r\n            borrower,\r\n            msg.sender,\r\n            false,\r\n            borrower_reg_id,\r\n            lender_reg_id,\r\n            transaction_counter,\r\n            l_id,\r\n            c_d,\r\n            pay_back_amt,\r\n            pay_back_amt,\r\n            false\r\n        );\r\n        // Tranfer Funds from Lender to borrower\r\n\r\n        borrower.transfer(msg.value);\r\n\r\n        return (200, transaction_counter);\r\n    }\r\n\r\n    function view_transactions(uint256 _t_c) public returns (string memory) {\r\n        return Processed_Transactions[_t_c].lender_reg_id;\r\n    }\r\n\r\n    function make_payouts(uint256 transaction_no, uint256 _amt)\r\n        public\r\n        payable\r\n        returns (uint256, uint256)\r\n    {\r\n        bool flag = false;\r\n        if (_amt == Processed_Transactions[transaction_no].amt_due) {\r\n            flag = true;\r\n            // liquidate collateral and payout to the borrower\r\n            // case of borrower returning the loan amount with interest\r\n        }\r\n        //Tranfer Money into Lenderer's Account\r\n        address payable l_acc = Processed_Transactions[transaction_no].lender;\r\n        l_acc.transfer(msg.value);\r\n        // IF Full Amount tranfered,change transaction state to Paid\r\n        Processed_Transactions[transaction_no].Loan_Paid = flag;\r\n        uint256 amt_left = Processed_Transactions[transaction_no].amt_due -\r\n            _amt;\r\n        Processed_Transactions[transaction_no].amt_due = amt_left;\r\n        Processed_Transactions[transaction_no].collateral_liquidated = false;\r\n\r\n        // Create a Payment Record\r\n        payments_counter += 1;\r\n        Payouts[payments_counter] = Payments(\r\n            Processed_Transactions[transaction_no].borrower,\r\n            Processed_Transactions[transaction_no].lender,\r\n            msg.value,\r\n            transaction_no,\r\n            flag,\r\n            amt_left,\r\n            payments_counter\r\n        );\r\n        return (200, payments_counter);\r\n    }\r\n\r\n    function borrower_payout(uint256 t_id, uint256 amt)\r\n        public\r\n        payable\r\n        returns (uint256, uint256)\r\n    {\r\n        // case where borrower returns the loan amount with interest\r\n        address payable b_acc = Processed_Transactions[t_id].borrower;\r\n        b_acc.transfer(msg.value);\r\n        liquidated_payouts += 1;\r\n        wallet_payouts[liquidated_payouts] = Liquidated_Payouts(\r\n            b_acc,\r\n            amt,\r\n            false,\r\n            true,\r\n            t_id,\r\n            liquidated_payouts\r\n        );\r\n\r\n        return (200, 1);\r\n    }\r\n\r\n    function liquidate_collateral(uint256 t_id, uint256 amt)\r\n        public\r\n        payable\r\n        returns (uint256, uint256)\r\n    {\r\n        // Liquidate collateral and transfer the amount into the lenderer's account\r\n        // Case where  borrower defaults\r\n        address payable acc = Processed_Transactions[t_id].lender;\r\n        Processed_Transactions[t_id].Loan_Paid = false;\r\n        acc.transfer(msg.value);\r\n        liquidated_payouts += 1;\r\n        wallet_payouts[liquidated_payouts] = Liquidated_Payouts(\r\n            acc,\r\n            amt,\r\n            false,\r\n            true,\r\n            t_id,\r\n            liquidated_payouts\r\n        );\r\n\r\n        return (200, 1);\r\n    }\r\n}\r\n",
  "sourcePath": "D:\\Experiments\\Experiments\\Blockchain\\contracts\\p2p_lending.sol",
  "compiler": {
    "name": "solc",
    "version": "0.5.16+commit.9c3226ce.Emscripten.clang"
  },
  "schemaVersion": "3.4.3",
  "updatedAt": "2021-09-15T17:01:27.424Z",
  "networkType": "ethereum",
  "devdoc": {
    "methods": {}
  },
  "userdoc": {
    "methods": {}
  }
}